{
    "contractName": "Rewards",
    "abi": [
        {
            "inputs": [],
            "stateMutability": "nonpayable",
            "type": "constructor"
        },
        {
            "anonymous": false,
            "inputs": [
                {
                    "indexed": false,
                    "internalType": "uint256",
                    "name": "rewardAmount",
                    "type": "uint256"
                }
            ],
            "name": "Distribution",
            "type": "event"
        },
        {
            "anonymous": false,
            "inputs": [
                {
                    "indexed": true,
                    "internalType": "bytes32",
                    "name": "role",
                    "type": "bytes32"
                },
                {
                    "indexed": true,
                    "internalType": "bytes32",
                    "name": "previousAdminRole",
                    "type": "bytes32"
                },
                {
                    "indexed": true,
                    "internalType": "bytes32",
                    "name": "newAdminRole",
                    "type": "bytes32"
                }
            ],
            "name": "RoleAdminChanged",
            "type": "event"
        },
        {
            "anonymous": false,
            "inputs": [
                {
                    "indexed": true,
                    "internalType": "bytes32",
                    "name": "role",
                    "type": "bytes32"
                },
                {
                    "indexed": true,
                    "internalType": "address",
                    "name": "account",
                    "type": "address"
                },
                {
                    "indexed": true,
                    "internalType": "address",
                    "name": "sender",
                    "type": "address"
                }
            ],
            "name": "RoleGranted",
            "type": "event"
        },
        {
            "anonymous": false,
            "inputs": [
                {
                    "indexed": true,
                    "internalType": "bytes32",
                    "name": "role",
                    "type": "bytes32"
                },
                {
                    "indexed": true,
                    "internalType": "address",
                    "name": "account",
                    "type": "address"
                },
                {
                    "indexed": true,
                    "internalType": "address",
                    "name": "sender",
                    "type": "address"
                }
            ],
            "name": "RoleRevoked",
            "type": "event"
        },
        {
            "anonymous": false,
            "inputs": [
                {
                    "indexed": false,
                    "internalType": "address",
                    "name": "participant",
                    "type": "address"
                },
                {
                    "indexed": false,
                    "internalType": "uint256",
                    "name": "depositAmount",
                    "type": "uint256"
                },
                {
                    "indexed": false,
                    "internalType": "uint256",
                    "name": "total",
                    "type": "uint256"
                }
            ],
            "name": "Withdrawal",
            "type": "event"
        },
        {
            "inputs": [],
            "name": "DEFAULT_ADMIN_ROLE",
            "outputs": [
                {
                    "internalType": "bytes32",
                    "name": "",
                    "type": "bytes32"
                }
            ],
            "stateMutability": "view",
            "type": "function"
        },
        {
            "inputs": [],
            "name": "TEAM_MEMBER_ROLE",
            "outputs": [
                {
                    "internalType": "bytes32",
                    "name": "",
                    "type": "bytes32"
                }
            ],
            "stateMutability": "view",
            "type": "function"
        },
        {
            "inputs": [
                {
                    "internalType": "bytes32",
                    "name": "role",
                    "type": "bytes32"
                }
            ],
            "name": "getRoleAdmin",
            "outputs": [
                {
                    "internalType": "bytes32",
                    "name": "",
                    "type": "bytes32"
                }
            ],
            "stateMutability": "view",
            "type": "function"
        },
        {
            "inputs": [
                {
                    "internalType": "bytes32",
                    "name": "role",
                    "type": "bytes32"
                },
                {
                    "internalType": "address",
                    "name": "account",
                    "type": "address"
                }
            ],
            "name": "grantRole",
            "outputs": [],
            "stateMutability": "nonpayable",
            "type": "function"
        },
        {
            "inputs": [
                {
                    "internalType": "bytes32",
                    "name": "role",
                    "type": "bytes32"
                },
                {
                    "internalType": "address",
                    "name": "account",
                    "type": "address"
                }
            ],
            "name": "hasRole",
            "outputs": [
                {
                    "internalType": "bool",
                    "name": "",
                    "type": "bool"
                }
            ],
            "stateMutability": "view",
            "type": "function"
        },
        {
            "inputs": [
                {
                    "internalType": "address",
                    "name": "",
                    "type": "address"
                }
            ],
            "name": "participantData",
            "outputs": [
                {
                    "internalType": "uint256",
                    "name": "amount",
                    "type": "uint256"
                },
                {
                    "internalType": "int128",
                    "name": "participantMask",
                    "type": "int128"
                }
            ],
            "stateMutability": "view",
            "type": "function"
        },
        {
            "inputs": [
                {
                    "internalType": "bytes32",
                    "name": "role",
                    "type": "bytes32"
                },
                {
                    "internalType": "address",
                    "name": "account",
                    "type": "address"
                }
            ],
            "name": "renounceRole",
            "outputs": [],
            "stateMutability": "nonpayable",
            "type": "function"
        },
        {
            "inputs": [
                {
                    "internalType": "bytes32",
                    "name": "role",
                    "type": "bytes32"
                },
                {
                    "internalType": "address",
                    "name": "account",
                    "type": "address"
                }
            ],
            "name": "revokeRole",
            "outputs": [],
            "stateMutability": "nonpayable",
            "type": "function"
        },
        {
            "inputs": [],
            "name": "roundMask",
            "outputs": [
                {
                    "internalType": "int128",
                    "name": "",
                    "type": "int128"
                }
            ],
            "stateMutability": "view",
            "type": "function"
        },
        {
            "inputs": [
                {
                    "internalType": "bytes4",
                    "name": "interfaceId",
                    "type": "bytes4"
                }
            ],
            "name": "supportsInterface",
            "outputs": [
                {
                    "internalType": "bool",
                    "name": "",
                    "type": "bool"
                }
            ],
            "stateMutability": "view",
            "type": "function"
        },
        {
            "inputs": [],
            "name": "totalDeposits",
            "outputs": [
                {
                    "internalType": "uint256",
                    "name": "",
                    "type": "uint256"
                }
            ],
            "stateMutability": "view",
            "type": "function"
        },
        {
            "inputs": [],
            "name": "totalParticipants",
            "outputs": [
                {
                    "internalType": "uint256",
                    "name": "",
                    "type": "uint256"
                }
            ],
            "stateMutability": "view",
            "type": "function"
        },
        {
            "inputs": [],
            "name": "contributeToPool",
            "outputs": [
                {
                    "internalType": "bool",
                    "name": "",
                    "type": "bool"
                }
            ],
            "stateMutability": "payable",
            "type": "function"
        },
        {
            "inputs": [],
            "name": "distributeReward",
            "outputs": [],
            "stateMutability": "payable",
            "type": "function"
        },
        {
            "inputs": [
                {
                    "internalType": "address",
                    "name": "participant",
                    "type": "address"
                }
            ],
            "name": "getParticipantBalance",
            "outputs": [
                {
                    "internalType": "uint256",
                    "name": "",
                    "type": "uint256"
                }
            ],
            "stateMutability": "view",
            "type": "function"
        },
        {
            "inputs": [],
            "name": "withdraw",
            "outputs": [
                {
                    "internalType": "bool",
                    "name": "",
                    "type": "bool"
                }
            ],
            "stateMutability": "nonpayable",
            "type": "function"
        },
        {
            "inputs": [
                {
                    "internalType": "address",
                    "name": "_participant",
                    "type": "address"
                }
            ],
            "name": "getParticipantData",
            "outputs": [
                {
                    "components": [
                        {
                            "internalType": "uint256",
                            "name": "amount",
                            "type": "uint256"
                        },
                        {
                            "internalType": "int128",
                            "name": "participantMask",
                            "type": "int128"
                        }
                    ],
                    "internalType": "struct Rewards.Participant",
                    "name": "",
                    "type": "tuple"
                }
            ],
            "stateMutability": "view",
            "type": "function"
        },
        {
            "inputs": [
                {
                    "internalType": "address",
                    "name": "account",
                    "type": "address"
                }
            ],
            "name": "addTeamMember",
            "outputs": [],
            "stateMutability": "nonpayable",
            "type": "function"
        },
        {
            "inputs": [
                {
                    "internalType": "address",
                    "name": "account",
                    "type": "address"
                }
            ],
            "name": "removeTeamMember",
            "outputs": [],
            "stateMutability": "nonpayable",
            "type": "function"
        }
    ],
    "bytecode": "0x6080604052600060025560006003553480156200001b57600080fd5b50620000316000801b336200006960201b60201c565b620000637f8e686555a55ab6b23aa445db999c535d72a040cce9fe8b191d10aa2671cf528e336200006960201b60201c565b620001e2565b6200007b82826200007f60201b60201c565b5050565b6200009182826200017060201b60201c565b6200016c57600160008084815260200190815260200160002060000160008373ffffffffffffffffffffffffffffffffffffffff1673ffffffffffffffffffffffffffffffffffffffff16815260200190815260200160002060006101000a81548160ff02191690831515021790555062000111620001da60201b60201c565b73ffffffffffffffffffffffffffffffffffffffff168173ffffffffffffffffffffffffffffffffffffffff16837f2f8788117e7eff1d82e926ec794901d17c78024a50270940304540a733656f0d60405160405180910390a45b5050565b600080600084815260200190815260200160002060000160008373ffffffffffffffffffffffffffffffffffffffff1673ffffffffffffffffffffffffffffffffffffffff16815260200190815260200160002060009054906101000a900460ff16905092915050565b600033905090565b6122ff80620001f26000396000f3fe6080604052600436106101145760003560e01c80635c7266e4116100a0578063a217fddf11610064578063a217fddf14610398578063a26dbf26146103c3578063d547741f146103ee578063d6656b7414610417578063e9560b3b1461044257610114565b80635c7266e4146102dd5780636b9cbe11146102fb5780637d882097146103265780638f73c5ae1461035157806391d148541461035b57610114565b806336568abe116100e757806336568abe146101e5578063387d5f771461020e5780633ccfd60b1461024c5780633eb2b5ad146102775780635c47ead7146102a057610114565b806301ffc9a71461011957806314eba02614610156578063248a9ca31461017f5780632f2ff15d146101bc575b600080fd5b34801561012557600080fd5b50610140600480360381019061013b91906117db565b61047f565b60405161014d9190611823565b60405180910390f35b34801561016257600080fd5b5061017d6004803603810190610178919061189c565b6104f9565b005b34801561018b57600080fd5b506101a660048036038101906101a191906118ff565b610526565b6040516101b3919061193b565b60405180910390f35b3480156101c857600080fd5b506101e360048036038101906101de9190611956565b610545565b005b3480156101f157600080fd5b5061020c60048036038101906102079190611956565b610566565b005b34801561021a57600080fd5b506102356004803603810190610230919061189c565b6105e9565b6040516102439291906119cb565b60405180910390f35b34801561025857600080fd5b5061026161061a565b60405161026e9190611823565b60405180910390f35b34801561028357600080fd5b5061029e6004803603810190610299919061189c565b6108e2565b005b3480156102ac57600080fd5b506102c760048036038101906102c2919061189c565b61090f565b6040516102d49190611a41565b60405180910390f35b6102e561098f565b6040516102f29190611823565b60405180910390f35b34801561030757600080fd5b50610310610a9a565b60405161031d919061193b565b60405180910390f35b34801561033257600080fd5b5061033b610abe565b6040516103489190611a5c565b60405180910390f35b610359610ac4565b005b34801561036757600080fd5b50610382600480360381019061037d9190611956565b610bba565b60405161038f9190611823565b60405180910390f35b3480156103a457600080fd5b506103ad610c24565b6040516103ba919061193b565b60405180910390f35b3480156103cf57600080fd5b506103d8610c2b565b6040516103e59190611a5c565b60405180910390f35b3480156103fa57600080fd5b5061041560048036038101906104109190611956565b610c31565b005b34801561042357600080fd5b5061042c610c52565b6040516104399190611a77565b60405180910390f35b34801561044e57600080fd5b506104696004803603810190610464919061189c565b610c65565b6040516104769190611a5c565b60405180910390f35b60007f7965db0b000000000000000000000000000000000000000000000000000000007bffffffffffffffffffffffffffffffffffffffffffffffffffffffff1916827bffffffffffffffffffffffffffffffffffffffffffffffffffffffff191614806104f257506104f182610d61565b5b9050919050565b6105237f8e686555a55ab6b23aa445db999c535d72a040cce9fe8b191d10aa2671cf528e82610c31565b50565b6000806000838152602001908152602001600020600101549050919050565b61054e82610526565b61055781610dcb565b6105618383610ddf565b505050565b61056e610ebf565b73ffffffffffffffffffffffffffffffffffffffff168173ffffffffffffffffffffffffffffffffffffffff16146105db576040517f08c379a00000000000000000000000000000000000000000000000000000000081526004016105d290611b15565b60405180910390fd5b6105e58282610ec7565b5050565b60046020528060005260406000206000915090508060000154908060010160009054906101000a9004600f0b905082565b600080600460003373ffffffffffffffffffffffffffffffffffffffff1673ffffffffffffffffffffffffffffffffffffffff168152602001908152602001600020600001541161066a57600080fd5b600061067533610c65565b905060003373ffffffffffffffffffffffffffffffffffffffff168260405161069d90611b66565b60006040518083038185875af1925050503d80600081146106da576040519150601f19603f3d011682016040523d82523d6000602084013e6106df565b606091505b5050905080610723576040517f08c379a000000000000000000000000000000000000000000000000000000000815260040161071a90611bc7565b60405180910390fd5b7fdf273cb619d95419a9cd0ec88123a0538c85064229baa6363788f743fff90deb33600460003373ffffffffffffffffffffffffffffffffffffffff1673ffffffffffffffffffffffffffffffffffffffff168152602001908152602001600020600001548460405161079893929190611bf6565b60405180910390a1600460003373ffffffffffffffffffffffffffffffffffffffff1673ffffffffffffffffffffffffffffffffffffffff16815260200190815260200160002060000154600360008282546107f49190611c5c565b9250508190555060016002600082825461080e9190611c5c565b925050819055506000600460003373ffffffffffffffffffffffffffffffffffffffff1673ffffffffffffffffffffffffffffffffffffffff16815260200190815260200160002060010160006101000a8154816fffffffffffffffffffffffffffffffff0219169083600f0b6fffffffffffffffffffffffffffffffff1602179055506000600460003373ffffffffffffffffffffffffffffffffffffffff1673ffffffffffffffffffffffffffffffffffffffff16815260200190815260200160002060000181905550809250505090565b61090c7f8e686555a55ab6b23aa445db999c535d72a040cce9fe8b191d10aa2671cf528e82610545565b50565b610917611761565b600460008373ffffffffffffffffffffffffffffffffffffffff1673ffffffffffffffffffffffffffffffffffffffff168152602001908152602001600020604051806040016040529081600082015481526020016001820160009054906101000a9004600f0b600f0b600f0b815250509050919050565b60008034116109d3576040517f08c379a00000000000000000000000000000000000000000000000000000000081526004016109ca90611cdc565b60405180910390fd5b6000600460003373ffffffffffffffffffffffffffffffffffffffff1673ffffffffffffffffffffffffffffffffffffffff1681526020019081526020016000206000015414610a58576040517f08c379a0000000000000000000000000000000000000000000000000000000008152600401610a4f90611d48565b60405180910390fd5b600160026000828254610a6b9190611d68565b925050819055503460036000828254610a849190611d68565b92505081905550610a93610fa8565b6001905090565b7f8e686555a55ab6b23aa445db999c535d72a040cce9fe8b191d10aa2671cf528e81565b60035481565b7f8e686555a55ab6b23aa445db999c535d72a040cce9fe8b191d10aa2671cf528e610aee81610dcb565b60003411610b31576040517f08c379a0000000000000000000000000000000000000000000000000000000008152600401610b2890611e30565b60405180910390fd5b600060035411610b76576040517f08c379a0000000000000000000000000000000000000000000000000000000008152600401610b6d90611ec2565b60405180910390fd5b610b7f34611095565b507f646281a1f6e9956b914b633483bb33fe8d21acc7c1061352910df7243113cc6b34604051610baf9190611a5c565b60405180910390a150565b600080600084815260200190815260200160002060000160008373ffffffffffffffffffffffffffffffffffffffff1673ffffffffffffffffffffffffffffffffffffffff16815260200190815260200160002060009054906101000a900460ff16905092915050565b6000801b81565b60025481565b610c3a82610526565b610c4381610dcb565b610c4d8383610ec7565b505050565b600160009054906101000a9004600f0b81565b600080600460008473ffffffffffffffffffffffffffffffffffffffff1673ffffffffffffffffffffffffffffffffffffffff1681526020019081526020016000206000015490506000600160009054906101000a9004600f0b90506000600460008673ffffffffffffffffffffffffffffffffffffffff1673ffffffffffffffffffffffffffffffffffffffff16815260200190815260200160002060010160009054906101000a9004600f0b90506000610d2d8284600f0b6110c390919063ffffffff16565b90506000610d478583600f0b61112a90919063ffffffff16565b90508085610d559190611d68565b95505050505050919050565b60007f01ffc9a7000000000000000000000000000000000000000000000000000000007bffffffffffffffffffffffffffffffffffffffffffffffffffffffff1916827bffffffffffffffffffffffffffffffffffffffffffffffffffffffff1916149050919050565b610ddc81610dd7610ebf565b6111e4565b50565b610de98282610bba565b610ebb57600160008084815260200190815260200160002060000160008373ffffffffffffffffffffffffffffffffffffffff1673ffffffffffffffffffffffffffffffffffffffff16815260200190815260200160002060006101000a81548160ff021916908315150217905550610e60610ebf565b73ffffffffffffffffffffffffffffffffffffffff168173ffffffffffffffffffffffffffffffffffffffff16837f2f8788117e7eff1d82e926ec794901d17c78024a50270940304540a733656f0d60405160405180910390a45b5050565b600033905090565b610ed18282610bba565b15610fa457600080600084815260200190815260200160002060000160008373ffffffffffffffffffffffffffffffffffffffff1673ffffffffffffffffffffffffffffffffffffffff16815260200190815260200160002060006101000a81548160ff021916908315150217905550610f49610ebf565b73ffffffffffffffffffffffffffffffffffffffff168173ffffffffffffffffffffffffffffffffffffffff16837ff6391f5c32d9c69d2a47ea670b442974b53935d1edc7fd64eb21e047a839171b60405160405180910390a45b5050565b6000610fb333610c65565b9050600160009054906101000a9004600f0b600460003373ffffffffffffffffffffffffffffffffffffffff1673ffffffffffffffffffffffffffffffffffffffff16815260200190815260200160002060010160006101000a8154816fffffffffffffffffffffffffffffffff0219169083600f0b6fffffffffffffffffffffffffffffffff160217905550348161104c9190611d68565b600460003373ffffffffffffffffffffffffffffffffffffffff1673ffffffffffffffffffffffffffffffffffffffff1681526020019081526020016000206000018190555050565b6000806110ad6003548461128190919063ffffffff16565b90506110b8816112e8565b506001915050919050565b60008082600f0b84600f0b0390507fffffffffffffffffffffffffffffffff80000000000000000000000000000000600f0b811215801561111757506f7fffffffffffffffffffffffffffffff600f0b8113155b61112057600080fd5b8091505092915050565b600080820361113c57600090506111de565b600083600f0b121561114d57600080fd5b600060406fffffffffffffffffffffffffffffffff841685600f0b02901c90506000608084901c85600f0b02905077ffffffffffffffffffffffffffffffffffffffffffffffff8111156111a057600080fd5b604081901b9050817fffffffffffffffffffffffffffffffffffffffffffffffffffffffffffffffff038111156111d657600080fd5b818101925050505b92915050565b6111ee8282610bba565b61127d576112138173ffffffffffffffffffffffffffffffffffffffff166014611349565b6112218360001c6020611349565b604051602001611232929190611ff4565b6040516020818303038152906040526040517f08c379a00000000000000000000000000000000000000000000000000000000081526004016112749190612078565b60405180910390fd5b5050565b600080820361128f57600080fd5b600061129b8484611585565b90506f7fffffffffffffffffffffffffffffff6fffffffffffffffffffffffffffffffff16816fffffffffffffffffffffffffffffffff1611156112de57600080fd5b8091505092915050565b600081600160009054906101000a9004600f0b611305919061209a565b600160006101000a8154816fffffffffffffffffffffffffffffffff0219169083600f0b6fffffffffffffffffffffffffffffffff16021790555060019050919050565b60606000600283600261135c919061211e565b6113669190611d68565b67ffffffffffffffff81111561137f5761137e612178565b5b6040519080825280601f01601f1916602001820160405280156113b15781602001600182028036833780820191505090505b5090507f3000000000000000000000000000000000000000000000000000000000000000816000815181106113e9576113e86121a7565b5b60200101907effffffffffffffffffffffffffffffffffffffffffffffffffffffffffffff1916908160001a9053507f78000000000000000000000000000000000000000000000000000000000000008160018151811061144d5761144c6121a7565b5b60200101907effffffffffffffffffffffffffffffffffffffffffffffffffffffffffffff1916908160001a9053506000600184600261148d919061211e565b6114979190611d68565b90505b6001811115611537577f3031323334353637383961626364656600000000000000000000000000000000600f8616601081106114d9576114d86121a7565b5b1a60f81b8282815181106114f0576114ef6121a7565b5b60200101907effffffffffffffffffffffffffffffffffffffffffffffffffffffffffffff1916908160001a905350600485901c945080611530906121d6565b905061149a565b506000841461157b576040517f08c379a00000000000000000000000000000000000000000000000000000000081526004016115729061224b565b60405180910390fd5b8091505092915050565b600080820361159357600080fd5b600077ffffffffffffffffffffffffffffffffffffffffffffffff84116115d05782604085901b816115c8576115c761226b565b5b04905061173a565b600060c09050600060c086901c905064010000000081106115f957602081901c90506020820191505b62010000811061161157601081901c90506010820191505b610100811061162857600881901c90506008820191505b6010811061163e57600481901c90506004820191505b6004811061165457600281901c90506002820191505b60028110611663576001820191505b600160bf830360018703901c018260ff0387901b816116855761168461226b565b5b0492506fffffffffffffffffffffffffffffffff8311156116a557600080fd5b6000608086901c8402905060006fffffffffffffffffffffffffffffffff871685029050600060c089901c9050600060408a901b9050828110156116ea576001820391505b8281039050608084901b925082811015611705576001820391505b8281039050608084901c821461171e5761171d61229a565b5b88818161172e5761172d61226b565b5b04870196505050505050505b6fffffffffffffffffffffffffffffffff81111561175757600080fd5b8091505092915050565b6040518060400160405280600081526020016000600f0b81525090565b600080fd5b60007fffffffff0000000000000000000000000000000000000000000000000000000082169050919050565b6117b881611783565b81146117c357600080fd5b50565b6000813590506117d5816117af565b92915050565b6000602082840312156117f1576117f061177e565b5b60006117ff848285016117c6565b91505092915050565b60008115159050919050565b61181d81611808565b82525050565b60006020820190506118386000830184611814565b92915050565b600073ffffffffffffffffffffffffffffffffffffffff82169050919050565b60006118698261183e565b9050919050565b6118798161185e565b811461188457600080fd5b50565b60008135905061189681611870565b92915050565b6000602082840312156118b2576118b161177e565b5b60006118c084828501611887565b91505092915050565b6000819050919050565b6118dc816118c9565b81146118e757600080fd5b50565b6000813590506118f9816118d3565b92915050565b6000602082840312156119155761191461177e565b5b6000611923848285016118ea565b91505092915050565b611935816118c9565b82525050565b6000602082019050611950600083018461192c565b92915050565b6000806040838503121561196d5761196c61177e565b5b600061197b858286016118ea565b925050602061198c85828601611887565b9150509250929050565b6000819050919050565b6119a981611996565b82525050565b600081600f0b9050919050565b6119c5816119af565b82525050565b60006040820190506119e060008301856119a0565b6119ed60208301846119bc565b9392505050565b6119fd81611996565b82525050565b611a0c816119af565b82525050565b604082016000820151611a2860008501826119f4565b506020820151611a3b6020850182611a03565b50505050565b6000604082019050611a566000830184611a12565b92915050565b6000602082019050611a7160008301846119a0565b92915050565b6000602082019050611a8c60008301846119bc565b92915050565b600082825260208201905092915050565b7f416363657373436f6e74726f6c3a2063616e206f6e6c792072656e6f756e636560008201527f20726f6c657320666f722073656c660000000000000000000000000000000000602082015250565b6000611aff602f83611a92565b9150611b0a82611aa3565b604082019050919050565b60006020820190508181036000830152611b2e81611af2565b9050919050565b600081905092915050565b50565b6000611b50600083611b35565b9150611b5b82611b40565b600082019050919050565b6000611b7182611b43565b9150819050919050565b7f5769746864726177616c206661696c6564000000000000000000000000000000600082015250565b6000611bb1601183611a92565b9150611bbc82611b7b565b602082019050919050565b60006020820190508181036000830152611be081611ba4565b9050919050565b611bf08161185e565b82525050565b6000606082019050611c0b6000830186611be7565b611c1860208301856119a0565b611c2560408301846119a0565b949350505050565b7f4e487b7100000000000000000000000000000000000000000000000000000000600052601160045260246000fd5b6000611c6782611996565b9150611c7283611996565b925082821015611c8557611c84611c2d565b5b828203905092915050565b7f45544820616d6f756e742073686f756c6420626520706f736974697665000000600082015250565b6000611cc6601d83611a92565b9150611cd182611c90565b602082019050919050565b60006020820190508181036000830152611cf581611cb9565b9050919050565b7f57697468647261772066756e6473206265666f7265206465706f736974696e67600082015250565b6000611d32602083611a92565b9150611d3d82611cfc565b602082019050919050565b60006020820190508181036000830152611d6181611d25565b9050919050565b6000611d7382611996565b9150611d7e83611996565b9250827fffffffffffffffffffffffffffffffffffffffffffffffffffffffffffffffff03821115611db357611db2611c2d565b5b828201905092915050565b7f53686f756c64206861766520612072657761726420616d6f756e7420746f206460008201527f6973747269627574650000000000000000000000000000000000000000000000602082015250565b6000611e1a602983611a92565b9150611e2582611dbe565b604082019050919050565b60006020820190508181036000830152611e4981611e0d565b9050919050565b7f53686f756c642068617665203e203020616d6f756e7420746f2063616c63756c60008201527f61746520746f74616c202f207265776172642072617465000000000000000000602082015250565b6000611eac603783611a92565b9150611eb782611e50565b604082019050919050565b60006020820190508181036000830152611edb81611e9f565b9050919050565b600081905092915050565b7f416363657373436f6e74726f6c3a206163636f756e7420000000000000000000600082015250565b6000611f23601783611ee2565b9150611f2e82611eed565b601782019050919050565b600081519050919050565b60005b83811015611f62578082015181840152602081019050611f47565b83811115611f71576000848401525b50505050565b6000611f8282611f39565b611f8c8185611ee2565b9350611f9c818560208601611f44565b80840191505092915050565b7f206973206d697373696e6720726f6c6520000000000000000000000000000000600082015250565b6000611fde601183611ee2565b9150611fe982611fa8565b601182019050919050565b6000611fff82611f16565b915061200b8285611f77565b915061201682611fd1565b91506120228284611f77565b91508190509392505050565b6000601f19601f8301169050919050565b600061204a82611f39565b6120548185611a92565b9350612064818560208601611f44565b61206d8161202e565b840191505092915050565b60006020820190508181036000830152612092818461203f565b905092915050565b60006120a5826119af565b91506120b0836119af565b9250816f7fffffffffffffffffffffffffffffff038313600083121516156120db576120da611c2d565b5b817fffffffffffffffffffffffffffffffff8000000000000000000000000000000003831260008312161561211357612112611c2d565b5b828201905092915050565b600061212982611996565b915061213483611996565b9250817fffffffffffffffffffffffffffffffffffffffffffffffffffffffffffffffff048311821515161561216d5761216c611c2d565b5b828202905092915050565b7f4e487b7100000000000000000000000000000000000000000000000000000000600052604160045260246000fd5b7f4e487b7100000000000000000000000000000000000000000000000000000000600052603260045260246000fd5b60006121e182611996565b9150600082036121f4576121f3611c2d565b5b600182039050919050565b7f537472696e67733a20686578206c656e67746820696e73756666696369656e74600082015250565b6000612235602083611a92565b9150612240826121ff565b602082019050919050565b6000602082019050818103600083015261226481612228565b9050919050565b7f4e487b7100000000000000000000000000000000000000000000000000000000600052601260045260246000fd5b7f4e487b7100000000000000000000000000000000000000000000000000000000600052600160045260246000fdfea26469706673582212207b8714deed743a3dbefbd73f6dd723c17b3af894a0d5dd22c12cc350c6b26d8364736f6c634300080e0033",
    "immutableReferences": {},
    "source": "// SPDX-License-Identifier: MIT\npragma solidity ^0.8.13.0;\n\nimport \"@openzeppelin/contracts/access/AccessControl.sol\";\nimport { ABDKMath64x64 } from \"./abdk-libraries/ABDKMath64x64.sol\";\n\ncontract Rewards is AccessControl {\n    using ABDKMath64x64 for uint256;\n    using ABDKMath64x64 for int128;\n\n    struct Participant {\n        uint256 amount;\n        int128 participantMask;\n    }\n\n    event Distribution(uint256 rewardAmount);\n    event Withdrawal(address participant, uint256 depositAmount, uint256 total);\n\n    int128 public roundMask;\n    uint256 public totalParticipants = 0;\n    uint256 public totalDeposits = 0;\n    mapping(address => Participant) public participantData;\n    bytes32 public constant TEAM_MEMBER_ROLE = keccak256(\"TEAM_MEMBER_ROLE\");\n\n    constructor() {\n        _setupRole(DEFAULT_ADMIN_ROLE, msg.sender);\n        _setupRole(TEAM_MEMBER_ROLE, msg.sender);\n    }\n\n    /**\n     * Participants contribute msg.value to pool.\n     * Participants must have a zero balance.\n     * @return A boolean that indicates if the operation was successful.\n     */\n    function contributeToPool() external payable returns (bool) {\n        require(msg.value > 0, \"ETH amount should be positive\");\n        require(participantData[msg.sender].amount == 0, \"Withdraw funds before depositing\");\n\n        totalParticipants += 1;\n        totalDeposits += msg.value;\n        updateParticipantData();\n        return true;\n    }\n\n    /**\n     * A registered team member deposits rewards to pool.\n     */\n    function distributeReward() external payable onlyRole(TEAM_MEMBER_ROLE) {\n        require(msg.value > 0, \"Should have a reward amount to distribute\");\n        require(totalDeposits > 0, \"Should have > 0 amount to calculate total / reward rate\");\n        calculateTPP(msg.value);\n        emit Distribution(msg.value);\n    }\n\n    /**\n      * Updates participantData for a participant during a deposit.\n      */\n    function updateParticipantData() internal {\n        uint256 currentBalance = getParticipantBalance(msg.sender);\n        participantData[msg.sender].participantMask = roundMask;\n        participantData[msg.sender].amount = currentBalance + msg.value;\n    }\n\n    /**\n      * Calculates the current ETH balance + rewards for a participant.\n      * @return Current ETH balance + rewards.\n      */\n    function getParticipantBalance(address participant) public view returns (uint256) {\n        uint256 deposited = participantData[participant].amount;\n        int128 rm = roundMask;\n        int128 pm = participantData[participant].participantMask;\n        int128 rate = rm.sub(pm);\n        uint256 reward = rate.mulu(deposited);\n        return deposited + reward;\n    }\n\n    /**\n     * Withdraws balance + rewards for a participant.\n     */\n    function withdraw() external returns (bool) {\n        require(participantData[msg.sender].amount > 0);\n        uint256 withdrawAmount = getParticipantBalance(msg.sender);\n        (bool sent, ) = msg.sender.call{value: withdrawAmount}(\"\");\n        require(sent, \"Withdrawal failed\");\n        emit Withdrawal(msg.sender, participantData[msg.sender].amount, withdrawAmount);\n        totalDeposits -= participantData[msg.sender].amount;\n        totalParticipants -= 1;\n        participantData[msg.sender].participantMask = 0;\n        participantData[msg.sender].amount = 0;\n        return sent;\n    }\n\n    /**\n    * @dev Function to calculate TPP (ETH/reward amount per participant).\n    * @return A boolean that indicates if the operation was successful.\n    */\n    function calculateTPP(uint256 rewardsAmount) private returns (bool) {\n        int128 tpp = rewardsAmount.divu(totalDeposits);\n        updateRoundMask(tpp);\n        return true;\n    }\n\n    function getParticipantData(address _participant) public view returns (Participant memory) {\n        return participantData[_participant];\n    }\n\n    /**\n    * Function to update round mask.\n    * @return A boolean that indicates if the operation was successful.\n    */\n    function updateRoundMask(int128 tpp) private returns (bool) {\n        roundMask = roundMask + tpp;\n        return true;\n    }\n\n    function addTeamMember(address account) public {\n        grantRole(TEAM_MEMBER_ROLE, account);\n    }\n\n    function removeTeamMember(address account) public {\n        revokeRole(TEAM_MEMBER_ROLE, account);\n    }\n}\n",
    "sourcePath": "/Users/mills/workspace/edge-and-node-contracts-challenge/contracts-challenge/contracts/Rewards.sol",
    "compiler": {
        "name": "solc",
        "version": "0.8.14+commit.80d49f37.Emscripten.clang"
    },
    "schemaVersion": "3.4.7",
    "updatedAt": "2022-06-07T08:56:05.396Z",
    "devdoc": {
        "kind": "dev",
        "methods": {
            "contributeToPool()": {
                "returns": {
                    "_0": "A boolean that indicates if the operation was successful."
                }
            },
            "getParticipantBalance(address)": {
                "returns": {
                    "_0": "Current ETH balance + rewards."
                }
            },
            "getRoleAdmin(bytes32)": {
                "details": "Returns the admin role that controls `role`. See {grantRole} and {revokeRole}. To change a role's admin, use {_setRoleAdmin}."
            },
            "grantRole(bytes32,address)": {
                "details": "Grants `role` to `account`. If `account` had not been already granted `role`, emits a {RoleGranted} event. Requirements: - the caller must have ``role``'s admin role."
            },
            "hasRole(bytes32,address)": {
                "details": "Returns `true` if `account` has been granted `role`."
            },
            "renounceRole(bytes32,address)": {
                "details": "Revokes `role` from the calling account. Roles are often managed via {grantRole} and {revokeRole}: this function's purpose is to provide a mechanism for accounts to lose their privileges if they are compromised (such as when a trusted device is misplaced). If the calling account had been revoked `role`, emits a {RoleRevoked} event. Requirements: - the caller must be `account`."
            },
            "revokeRole(bytes32,address)": {
                "details": "Revokes `role` from `account`. If `account` had been granted `role`, emits a {RoleRevoked} event. Requirements: - the caller must have ``role``'s admin role."
            },
            "supportsInterface(bytes4)": {
                "details": "See {IERC165-supportsInterface}."
            }
        },
        "version": 1
    },
    "userdoc": {
        "kind": "user",
        "methods": {
            "contributeToPool()": {
                "notice": "Participants contribute msg.value to pool. Participants must have a zero balance."
            },
            "distributeReward()": {
                "notice": "A registered team member deposits rewards to pool."
            },
            "getParticipantBalance(address)": {
                "notice": "Calculates the current ETH balance + rewards for a participant."
            },
            "withdraw()": {
                "notice": "Withdraws balance + rewards for a participant."
            }
        },
        "version": 1
    }
}